{
  "contractName": "EchoTest",
  "abi": [
    {
      "constant": false,
      "inputs": [
        {
          "name": "_s",
          "type": "string"
        }
      ],
      "name": "setTestVal",
      "outputs": [],
      "payable": false,
      "stateMutability": "nonpayable",
      "type": "function",
      "signature": "0x5c16b26d"
    },
    {
      "constant": true,
      "inputs": [],
      "name": "getTestVal",
      "outputs": [
        {
          "name": "",
          "type": "string"
        }
      ],
      "payable": false,
      "stateMutability": "view",
      "type": "function",
      "signature": "0x26ccab18"
    }
  ],
  "bytecode": "0x608060405234801561001057600080fd5b506102d7806100206000396000f30060806040526004361061004c576000357c0100000000000000000000000000000000000000000000000000000000900463ffffffff16806326ccab18146100515780635c16b26d146100e1575b600080fd5b34801561005d57600080fd5b5061006661014a565b6040518080602001828103825283818151815260200191508051906020019080838360005b838110156100a657808201518184015260208101905061008b565b50505050905090810190601f1680156100d35780820380516001836020036101000a031916815260200191505b509250505060405180910390f35b3480156100ed57600080fd5b50610148600480360381019080803590602001908201803590602001908080601f01602080910402602001604051908101604052809392919081815260200183838082843782019150505050505091929192905050506101ec565b005b606060008054600181600116156101000203166002900480601f0160208091040260200160405190810160405280929190818152602001828054600181600116156101000203166002900480156101e25780601f106101b7576101008083540402835291602001916101e2565b820191906000526020600020905b8154815290600101906020018083116101c557829003601f168201915b5050505050905090565b8060009080519060200190610202929190610206565b5050565b828054600181600116156101000203166002900490600052602060002090601f016020900481019282601f1061024757805160ff1916838001178555610275565b82800160010185558215610275579182015b82811115610274578251825591602001919060010190610259565b5b5090506102829190610286565b5090565b6102a891905b808211156102a457600081600090555060010161028c565b5090565b905600a165627a7a723058202239eebac5ef81ed68642f0afb891615b8b73cc738fdb80e33c749c7e055814b0029",
  "source": "pragma solidity ^0.4.22;\r\n\r\n\r\n/*\r\n Currently not used\r\n*/\r\n\r\ncontract EchoTest {\r\n\r\n  string testVal;\r\n\r\n  function setTestVal(string _s) public {\r\n    testVal = _s;\r\n  }\r\n\r\n  function getTestVal() public view returns (string){\r\n    return testVal;\r\n  }\r\n\r\n}\r\n  //mapping (address => string) ownerToIndexName;\r\n  //mapping (uint => address) public tokenToOwner;\r\n  //mapping (address => uint) ownerTokenCount;\r\n/*\r\n  Token[] public tokens;\r\n\r\n  event indexCreated(string _name, address _address);\r\n  event tokenAdded(uint _id, string _symbol, uint _amount);\r\n\r\n  struct Token{\r\n    string symbol;\r\n    uint amount; \r\n  }\r\n\r\n  modifier indexMustExist(){\r\n    bytes memory emptyStringTest = bytes(ownerToIndexName[msg.sender]);\r\n    require(emptyStringTest.length != 0, \" Index must exist, call createIndex() and initialize first.\");\r\n    _;\r\n  }\r\n\r\n \r\n\r\n  function addToken(string memory _symbol, uint _amount) public indexMustExist{\r\n    uint id = tokens.push(Token(_symbol, _amount)) - 1;\r\n    tokenToOwner[id] = msg.sender;\r\n    ownerTokenCount[msg.sender]++;    \r\n    emit tokenAdded(id, _symbol, _amount);\r\n\r\n  }\r\n\r\n  function tokenCount() public view returns (uint){\r\n    return ownerTokenCount[msg.sender];\r\n  }\r\n\r\n  function getToken(uint _id) public view returns(string memory, uint){\r\n    return (tokens[_id].symbol, tokens[_id].amount);\r\n  }\r\n\r\n  \r\n  \r\n  function tokensForOwner(address _owner) public view returns (uint[] memory){\r\n    uint[] memory result = new uint[](ownerTokenCount[_owner]);\r\n    uint counter = 0;\r\n    for (uint i = 0; i < tokens.length; i++){\r\n        if(tokenToOwner[i]==_owner){\r\n            result[counter] = i;\r\n            counter++;\r\n        }\r\n    }\r\n    return result;\r\n  }\r\n  \r\n\r\n  function createIndex(string memory _name) public {\r\n    ownerToIndexName[msg.sender] = _name;\r\n    emit indexCreated(_name, msg.sender);\r\n  }\r\n\r\n  function getIndexName() public view returns (string memory) {\r\n    return ownerToIndexName[msg.sender];\r\n  }\r\n}*/\r\n",
  "sourcePath": "C:/lib/CURRENT_DEV/truffle-dappchain-example/contracts/EchoTest.sol",
  "compiler": {
    "name": "solc",
    "version": "0.4.24+commit.e67f0147.Emscripten.clang"
  },
  "schemaVersion": "3.0.1",
  "updatedAt": "2019-04-06T19:13:35.738Z",
  "devdoc": {
    "methods": {}
  },
  "userdoc": {
    "methods": {}
  }
}