{
  "contractName": "EchoRegister",
  "abi": [
    {
      "anonymous": false,
      "inputs": [
        {
          "indexed": false,
          "name": "_address",
          "type": "address"
        }
      ],
      "name": "indexRegistered",
      "type": "event",
      "signature": "0xfeca1accff090923f22d55836fba229ffc4872f2ec253b2fe1c3886f7fe4cc71"
    },
    {
      "constant": false,
      "inputs": [],
      "name": "registerAddress",
      "outputs": [],
      "payable": false,
      "stateMutability": "nonpayable",
      "type": "function",
      "signature": "0x1832425f"
    },
    {
      "constant": true,
      "inputs": [],
      "name": "getRegisteredState",
      "outputs": [
        {
          "name": "",
          "type": "uint256"
        }
      ],
      "payable": false,
      "stateMutability": "view",
      "type": "function",
      "signature": "0xd3d7d165"
    },
    {
      "constant": true,
      "inputs": [],
      "name": "getCount",
      "outputs": [
        {
          "name": "",
          "type": "uint256"
        }
      ],
      "payable": false,
      "stateMutability": "view",
      "type": "function",
      "signature": "0xa87d942c"
    },
    {
      "constant": true,
      "inputs": [],
      "name": "getAllRegistered",
      "outputs": [
        {
          "name": "",
          "type": "address[]"
        }
      ],
      "payable": false,
      "stateMutability": "view",
      "type": "function",
      "signature": "0xc85c0d35"
    }
  ],
  "bytecode": "0x6080604052600060015534801561001557600080fd5b5061036b806100256000396000f3fe608060405260043610610062576000357c0100000000000000000000000000000000000000000000000000000000900463ffffffff1680631832425f14610067578063a87d942c1461007e578063c85c0d35146100a9578063d3d7d16514610115575b600080fd5b34801561007357600080fd5b5061007c610140565b005b34801561008a57600080fd5b50610093610261565b6040518082815260200191505060405180910390f35b3480156100b557600080fd5b506100be61026b565b6040518080602001828103825283818151815260200191508051906020019060200280838360005b838110156101015780820151818401526020810190506100e6565b505050509050019250505060405180910390f35b34801561012157600080fd5b5061012a6102f9565b6040518082815260200191505060405180910390f35b60016000815480929190600101919050555060016000803373ffffffffffffffffffffffffffffffffffffffff1673ffffffffffffffffffffffffffffffffffffffff1681526020019081526020016000208190555060023390806001815401808255809150509060018203906000526020600020016000909192909190916101000a81548173ffffffffffffffffffffffffffffffffffffffff021916908373ffffffffffffffffffffffffffffffffffffffff160217905550507ffeca1accff090923f22d55836fba229ffc4872f2ec253b2fe1c3886f7fe4cc7133604051808273ffffffffffffffffffffffffffffffffffffffff1673ffffffffffffffffffffffffffffffffffffffff16815260200191505060405180910390a1565b6000600154905090565b606060028054806020026020016040519081016040528092919081815260200182805480156102ef57602002820191906000526020600020905b8160009054906101000a900473ffffffffffffffffffffffffffffffffffffffff1673ffffffffffffffffffffffffffffffffffffffff16815260200190600101908083116102a5575b5050505050905090565b60008060003373ffffffffffffffffffffffffffffffffffffffff1673ffffffffffffffffffffffffffffffffffffffff1681526020019081526020016000205490509056fea165627a7a723058206128d076940ce4f04246fd0d37ca3a7864043fa2c410ac2a5fa007a63d70a1d40029",
  "source": "pragma solidity ^0.5.0;\r\n\r\ncontract EchoRegister {\r\n  mapping (address => uint) addressToState;\r\n  uint registeredCount = 0;\r\n  address[] addresses;\r\n\r\n  event indexRegistered(address _address);\r\n\r\n  modifier onlyOne() {\r\n    _;\r\n  }\r\n\r\n  function registerAddress() public onlyOne{\r\n    //make sure only one\r\n    registeredCount++;\r\n    addressToState[msg.sender] = 1;  // 1 is active\r\n    addresses.push(msg.sender);\r\n    emit indexRegistered(msg.sender);\r\n  }\r\n\r\n  function getRegisteredState() public view returns (uint){\r\n    return addressToState[msg.sender];\r\n  }\r\n\r\n  function getCount() public view returns (uint){\r\n    return registeredCount;\r\n  }\r\n\r\n  function getAllRegistered() public view returns (address[] memory){\r\n    return addresses;\r\n  }\r\n  \r\n}\r\n\r\n/*\r\ncontract EchoRegister {\r\n  mapping (address => string) registeredToIndexName;\r\n  mapping (uint => address) registeredToAddress;\r\n  uint registeredCount;\r\n\r\n  event indexRegistered(string _name, address _address);\r\n  \r\n  modifier indexMustExist(){\r\n    bytes memory emptyStringTest = bytes( registeredToIndexName[msg.sender]);\r\n    require(emptyStringTest.length != 0, \" Index must exist, call createIndex() and initialize first.\");\r\n    _;\r\n  }\r\n\r\n  modifier onlyOnePerAddress(){\r\n    bytes memory indexStr = bytes( registeredToIndexName[msg.sender]);\r\n    require(indexStr.length < 1, \" Only one index per address, you can update the name or you must remove it before creating another\");\r\n    _;\r\n  }\r\n\r\n\r\n  function getCount() public view returns(uint){\r\n    return registeredCount;\r\n  }\r\n\r\n  function getAllAddresses() view public returns (address[] memory) {\r\n    address[] memory result = new address[](registeredCount);\r\n    for (uint i = 0; i < registeredCount; i++){\r\n        result[i] = registeredToAddress[i+1];\r\n    }\r\n    return result;\r\n  }\r\n\r\n\r\n  function createIndex(string memory _name) public onlyOnePerAddress {\r\n    registeredToIndexName[msg.sender] = _name;\r\n    registeredCount++;\r\n    registeredToAddress[registeredCount] = msg.sender;\r\n    emit indexRegistered(_name, msg.sender);\r\n  }\r\n\r\n  function getIndexName() public view returns (string memory) {\r\n    return registeredToIndexName[msg.sender];\r\n  }\r\n\r\n  function getAddressForId(uint _id) public view returns (address){\r\n    return registeredToAddress[_id];\r\n  }\r\n\r\n  function getIndexForAddress(address _addr) public view returns (string memory){\r\n    return registeredToIndexName[_addr];\r\n  }\r\n}\r\n*/",
  "sourcePath": "C:/lib/CURRENT DEV/echo/contracts/EchoRegister.sol",
  "compiler": {
    "name": "solc",
    "version": "0.5.0+commit.1d4f565a.Emscripten.clang"
  },
  "schemaVersion": "3.0.6",
  "updatedAt": "2019-04-09T19:27:07.352Z",
  "devdoc": {
    "methods": {}
  },
  "userdoc": {
    "methods": {}
  }
}