{
  "contractName": "EchoRegister",
  "abi": [
    {
      "anonymous": false,
      "inputs": [
        {
          "indexed": false,
          "name": "_name",
          "type": "string"
        },
        {
          "indexed": false,
          "name": "_address",
          "type": "address"
        }
      ],
      "name": "indexRegistered",
      "type": "event"
    },
    {
      "constant": true,
      "inputs": [],
      "name": "getCount",
      "outputs": [
        {
          "name": "",
          "type": "uint256"
        }
      ],
      "payable": false,
      "stateMutability": "view",
      "type": "function"
    },
    {
      "constant": true,
      "inputs": [],
      "name": "getAllAddresses",
      "outputs": [
        {
          "name": "",
          "type": "address[]"
        }
      ],
      "payable": false,
      "stateMutability": "view",
      "type": "function"
    },
    {
      "constant": false,
      "inputs": [
        {
          "name": "_name",
          "type": "string"
        }
      ],
      "name": "createIndex",
      "outputs": [],
      "payable": false,
      "stateMutability": "nonpayable",
      "type": "function"
    },
    {
      "constant": true,
      "inputs": [],
      "name": "getIndexName",
      "outputs": [
        {
          "name": "",
          "type": "string"
        }
      ],
      "payable": false,
      "stateMutability": "view",
      "type": "function"
    },
    {
      "constant": true,
      "inputs": [
        {
          "name": "_id",
          "type": "uint256"
        }
      ],
      "name": "getAddressForId",
      "outputs": [
        {
          "name": "",
          "type": "address"
        }
      ],
      "payable": false,
      "stateMutability": "view",
      "type": "function"
    },
    {
      "constant": true,
      "inputs": [
        {
          "name": "_addr",
          "type": "address"
        }
      ],
      "name": "getIndexForAddress",
      "outputs": [
        {
          "name": "",
          "type": "string"
        }
      ],
      "payable": false,
      "stateMutability": "view",
      "type": "function"
    }
  ],
  "bytecode": "0x608060405234801561001057600080fd5b50610ab7806100206000396000f3fe608060405260043610610078576000357c0100000000000000000000000000000000000000000000000000000000900463ffffffff168063807947ca1461007d5780639516a10414610145578063a87d942c146101b1578063b14b08c5146101dc578063bb363dfc1461026c578063ebd3828e14610336575b600080fd5b34801561008957600080fd5b50610143600480360360208110156100a057600080fd5b81019080803590602001906401000000008111156100bd57600080fd5b8201836020820111156100cf57600080fd5b803590602001918460018302840111640100000000831117156100f157600080fd5b91908080601f016020809104026020016040519081016040528093929190818152602001838380828437600081840152601f19601f8201169050808301925050505050505091929192905050506103b1565b005b34801561015157600080fd5b5061015a610704565b6040518080602001828103825283818151815260200191508051906020019060200280838360005b8381101561019d578082015181840152602081019050610182565b505050509050019250505060405180910390f35b3480156101bd57600080fd5b506101c66107e1565b6040518082815260200191505060405180910390f35b3480156101e857600080fd5b506101f16107eb565b6040518080602001828103825283818151815260200191508051906020019080838360005b83811015610231578082015181840152602081019050610216565b50505050905090810190601f16801561025e5780820380516001836020036101000a031916815260200191505b509250505060405180910390f35b34801561027857600080fd5b506102bb6004803603602081101561028f57600080fd5b81019080803573ffffffffffffffffffffffffffffffffffffffff1690602001909291905050506108c9565b6040518080602001828103825283818151815260200191508051906020019080838360005b838110156102fb5780820151818401526020810190506102e0565b50505050905090810190601f1680156103285780820380516001836020036101000a031916815260200191505b509250505060405180910390f35b34801561034257600080fd5b5061036f6004803603602081101561035957600080fd5b81019080803590602001909291905050506109a9565b604051808273ffffffffffffffffffffffffffffffffffffffff1673ffffffffffffffffffffffffffffffffffffffff16815260200191505060405180910390f35b60606000803373ffffffffffffffffffffffffffffffffffffffff1673ffffffffffffffffffffffffffffffffffffffff1681526020019081526020016000208054600181600116156101000203166002900480601f0160208091040260200160405190810160405280929190818152602001828054600181600116156101000203166002900480156104855780601f1061045a57610100808354040283529160200191610485565b820191906000526020600020905b81548152906001019060200180831161046857829003601f168201915b5050505050905060018151101515610577576040517f08c379a00000000000000000000000000000000000000000000000000000000081526004018080602001828103825260628152602001807f204f6e6c79206f6e6520696e6465782070657220616464726573732c20796f7581526020017f2063616e2075706461746520746865206e616d65206f7220796f75206d75737481526020017f2072656d6f7665206974206265666f7265206372656174696e6720616e6f746881526020017f657200000000000000000000000000000000000000000000000000000000000081525060800191505060405180910390fd5b816000803373ffffffffffffffffffffffffffffffffffffffff1673ffffffffffffffffffffffffffffffffffffffff16815260200190815260200160002090805190602001906105c99291906109e6565b506002600081548092919060010191905055503360016000600254815260200190815260200160002060006101000a81548173ffffffffffffffffffffffffffffffffffffffff021916908373ffffffffffffffffffffffffffffffffffffffff1602179055507f44b167addc57e43800654abf3917df2da4f89d058ead2bfb9f9b76d442945698823360405180806020018373ffffffffffffffffffffffffffffffffffffffff1673ffffffffffffffffffffffffffffffffffffffff168152602001828103825284818151815260200191508051906020019080838360005b838110156106c55780820151818401526020810190506106aa565b50505050905090810190601f1680156106f25780820380516001836020036101000a031916815260200191505b50935050505060405180910390a15050565b6060806002546040519080825280602002602001820160405280156107385781602001602082028038833980820191505090505b50905060008090505b6002548110156107d9576001600060018301815260200190815260200160002060009054906101000a900473ffffffffffffffffffffffffffffffffffffffff16828281518110151561079057fe5b9060200190602002019073ffffffffffffffffffffffffffffffffffffffff16908173ffffffffffffffffffffffffffffffffffffffff16815250508080600101915050610741565b508091505090565b6000600254905090565b60606000803373ffffffffffffffffffffffffffffffffffffffff1673ffffffffffffffffffffffffffffffffffffffff1681526020019081526020016000208054600181600116156101000203166002900480601f0160208091040260200160405190810160405280929190818152602001828054600181600116156101000203166002900480156108bf5780601f10610894576101008083540402835291602001916108bf565b820191906000526020600020905b8154815290600101906020018083116108a257829003601f168201915b5050505050905090565b60606000808373ffffffffffffffffffffffffffffffffffffffff1673ffffffffffffffffffffffffffffffffffffffff1681526020019081526020016000208054600181600116156101000203166002900480601f01602080910402602001604051908101604052809291908181526020018280546001816001161561010002031660029004801561099d5780601f106109725761010080835404028352916020019161099d565b820191906000526020600020905b81548152906001019060200180831161098057829003601f168201915b50505050509050919050565b60006001600083815260200190815260200160002060009054906101000a900473ffffffffffffffffffffffffffffffffffffffff169050919050565b828054600181600116156101000203166002900490600052602060002090601f016020900481019282601f10610a2757805160ff1916838001178555610a55565b82800160010185558215610a55579182015b82811115610a54578251825591602001919060010190610a39565b5b509050610a629190610a66565b5090565b610a8891905b80821115610a84576000816000905550600101610a6c565b5090565b9056fea165627a7a7230582037af453b46d545962a133486a9762e7211feca9473154a57b29fe50aaa8e18440029",
  "source": "pragma solidity ^0.5.0;\r\n\r\n\r\ncontract EchoRegister {\r\n  mapping (address => string) registeredToIndexName;\r\n  mapping (uint => address) registeredToAddress;\r\n  uint registeredCount;\r\n\r\n  event indexRegistered(string _name, address _address);\r\n  \r\n  modifier indexMustExist(){\r\n    bytes memory emptyStringTest = bytes( registeredToIndexName[msg.sender]);\r\n    require(emptyStringTest.length != 0, \" Index must exist, call createIndex() and initialize first.\");\r\n    _;\r\n  }\r\n\r\n  modifier onlyOnePerAddress(){\r\n    bytes memory indexStr = bytes( registeredToIndexName[msg.sender]);\r\n    require(indexStr.length < 1, \" Only one index per address, you can update the name or you must remove it before creating another\");\r\n    _;\r\n  }\r\n\r\n\r\n  function getCount() public view returns(uint){\r\n    return registeredCount;\r\n  }\r\n\r\n  function getAllAddresses() view public returns (address[] memory) {\r\n    address[] memory result = new address[](registeredCount);\r\n    for (uint i = 0; i < registeredCount; i++){\r\n        result[i] = registeredToAddress[i+1];\r\n    }\r\n    return result;\r\n  }\r\n\r\n\r\n  function createIndex(string memory _name) public onlyOnePerAddress {\r\n    registeredToIndexName[msg.sender] = _name;\r\n    registeredCount++;\r\n    registeredToAddress[registeredCount] = msg.sender;\r\n    emit indexRegistered(_name, msg.sender);\r\n  }\r\n\r\n  function getIndexName() public view returns (string memory) {\r\n    return registeredToIndexName[msg.sender];\r\n  }\r\n\r\n  function getAddressForId(uint _id) public view returns (address){\r\n    return registeredToAddress[_id];\r\n  }\r\n\r\n  function getIndexForAddress(address _addr) public view returns (string memory){\r\n    return registeredToIndexName[_addr];\r\n  }\r\n}\r\n",
  "sourcePath": "C:/lib/CURRENT_DEV/echo/contracts/EchoRegister.sol",
  "compiler": {
    "name": "solc",
    "version": "0.5.0+commit.1d4f565a.Emscripten.clang"
  },
  "schemaVersion": "3.0.5",
  "updatedAt": "2019-04-05T13:25:57.585Z",
  "devdoc": {
    "methods": {}
  },
  "userdoc": {
    "methods": {}
  }
}