{
  "contractName": "EchoApp",
  "abi": [
    {
      "anonymous": false,
      "inputs": [
        {
          "indexed": false,
          "name": "_name",
          "type": "string"
        },
        {
          "indexed": false,
          "name": "_address",
          "type": "address"
        }
      ],
      "name": "indexCreated",
      "type": "event",
      "signature": "0x616fc420e9930c5d686f9f415144a1cf682c1c8e3628363eff9e83b386eaa12e"
    },
    {
      "constant": false,
      "inputs": [
        {
          "name": "_name",
          "type": "string"
        },
        {
          "name": "_addrOnEthNetwork",
          "type": "address"
        }
      ],
      "name": "createIndex",
      "outputs": [],
      "payable": false,
      "stateMutability": "nonpayable",
      "type": "function",
      "signature": "0x7ff8dbc0"
    },
    {
      "constant": true,
      "inputs": [],
      "name": "getIndexName",
      "outputs": [
        {
          "name": "",
          "type": "string"
        }
      ],
      "payable": false,
      "stateMutability": "view",
      "type": "function",
      "signature": "0xb14b08c5"
    },
    {
      "constant": true,
      "inputs": [
        {
          "name": "_addr",
          "type": "address"
        }
      ],
      "name": "getEthAddress",
      "outputs": [
        {
          "name": "",
          "type": "address"
        }
      ],
      "payable": false,
      "stateMutability": "view",
      "type": "function",
      "signature": "0xab107524"
    }
  ],
  "bytecode": "0x608060405234801561001057600080fd5b506105b5806100206000396000f300608060405260043610610057576000357c0100000000000000000000000000000000000000000000000000000000900463ffffffff1680637ff8dbc01461005c578063ab107524146100e5578063b14b08c514610168575b600080fd5b34801561006857600080fd5b506100e3600480360381019080803590602001908201803590602001908080601f0160208091040260200160405190810160405280939291908181526020018383808284378201915050505050509192919290803573ffffffffffffffffffffffffffffffffffffffff1690602001909291905050506101f8565b005b3480156100f157600080fd5b50610126600480360381019080803573ffffffffffffffffffffffffffffffffffffffff16906020019092919050505061039d565b604051808273ffffffffffffffffffffffffffffffffffffffff1673ffffffffffffffffffffffffffffffffffffffff16815260200191505060405180910390f35b34801561017457600080fd5b5061017d610405565b6040518080602001828103825283818151815260200191508051906020019080838360005b838110156101bd5780820151818401526020810190506101a2565b50505050905090810190601f1680156101ea5780820380516001836020036101000a031916815260200191505b509250505060405180910390f35b81600160003373ffffffffffffffffffffffffffffffffffffffff1673ffffffffffffffffffffffffffffffffffffffff168152602001908152602001600020908051906020019061024b9291906104e4565b50806000803373ffffffffffffffffffffffffffffffffffffffff1673ffffffffffffffffffffffffffffffffffffffff16815260200190815260200160002060006101000a81548173ffffffffffffffffffffffffffffffffffffffff021916908373ffffffffffffffffffffffffffffffffffffffff1602179055507f616fc420e9930c5d686f9f415144a1cf682c1c8e3628363eff9e83b386eaa12e823360405180806020018373ffffffffffffffffffffffffffffffffffffffff1673ffffffffffffffffffffffffffffffffffffffff168152602001828103825284818151815260200191508051906020019080838360005b8381101561035e578082015181840152602081019050610343565b50505050905090810190601f16801561038b5780820380516001836020036101000a031916815260200191505b50935050505060405180910390a15050565b60008060008373ffffffffffffffffffffffffffffffffffffffff1673ffffffffffffffffffffffffffffffffffffffff16815260200190815260200160002060009054906101000a900473ffffffffffffffffffffffffffffffffffffffff169050919050565b6060600160003373ffffffffffffffffffffffffffffffffffffffff1673ffffffffffffffffffffffffffffffffffffffff1681526020019081526020016000208054600181600116156101000203166002900480601f0160208091040260200160405190810160405280929190818152602001828054600181600116156101000203166002900480156104da5780601f106104af576101008083540402835291602001916104da565b820191906000526020600020905b8154815290600101906020018083116104bd57829003601f168201915b5050505050905090565b828054600181600116156101000203166002900490600052602060002090601f016020900481019282601f1061052557805160ff1916838001178555610553565b82800160010185558215610553579182015b82811115610552578251825591602001919060010190610537565b5b5090506105609190610564565b5090565b61058691905b8082111561058257600081600090555060010161056a565b5090565b905600a165627a7a723058200f0aeaae20f7bb4419a515f2ef44af1a3033613403b14cedf6827a0fe6d873960029",
  "source": "pragma solidity ^0.4.22;\r\n\r\n\r\n\r\ncontract EchoApp {\r\n\r\n  mapping (address => address) schainAddrToEthAddr;\r\n  mapping (address => string) ownerToIndexName;\r\n  mapping (address => address) indexToFollowers;\r\n\r\n  event indexCreated(string _name, address _address);\r\n\r\n\r\n  function createIndex(string memory _name, address _addrOnEthNetwork) public {\r\n    ownerToIndexName[msg.sender] = _name;\r\n    schainAddrToEthAddr[msg.sender] = _addrOnEthNetwork;\r\n    emit indexCreated(_name, msg.sender);\r\n  }\r\n\r\n  function getIndexName() public view returns (string memory) {\r\n    return ownerToIndexName[msg.sender];\r\n  }\r\n\r\n  function getEthAddress(address _addr) public view returns (address){\r\n    return schainAddrToEthAddr[_addr];\r\n  }\r\n\r\n\r\n}\r\n \r\n\r\n  \r\n",
  "sourcePath": "C:/lib/CURRENT DEV/echo-app-contract/contracts/EchoApp.sol",
  "compiler": {
    "name": "solc",
    "version": "0.4.24+commit.e67f0147.Emscripten.clang"
  },
  "schemaVersion": "3.0.6",
  "updatedAt": "2019-04-09T20:10:05.704Z",
  "devdoc": {
    "methods": {}
  },
  "userdoc": {
    "methods": {}
  }
}