{
  "contractName": "EchoApp",
  "abi": [
    {
      "anonymous": false,
      "inputs": [
        {
          "indexed": false,
          "name": "_name",
          "type": "string"
        },
        {
          "indexed": false,
          "name": "_ethAddress",
          "type": "address"
        },
        {
          "indexed": false,
          "name": "_sChainAddress",
          "type": "address"
        }
      ],
      "name": "indexCreated",
      "type": "event"
    },
    {
      "constant": false,
      "inputs": [
        {
          "name": "_name",
          "type": "string"
        },
        {
          "name": "_addrOnEthNetwork",
          "type": "address"
        }
      ],
      "name": "createIndex",
      "outputs": [],
      "payable": false,
      "stateMutability": "nonpayable",
      "type": "function"
    },
    {
      "constant": true,
      "inputs": [
        {
          "name": "_ethAddr",
          "type": "address"
        }
      ],
      "name": "getIndexName",
      "outputs": [
        {
          "name": "",
          "type": "string"
        }
      ],
      "payable": false,
      "stateMutability": "view",
      "type": "function"
    }
  ],
  "bytecode": "0x608060405234801561001057600080fd5b506104a2806100206000396000f30060806040526004361061004c576000357c0100000000000000000000000000000000000000000000000000000000900463ffffffff16806342361646146100515780637ff8dbc01461010d575b600080fd5b34801561005d57600080fd5b50610092600480360381019080803573ffffffffffffffffffffffffffffffffffffffff169060200190929190505050610196565b6040518080602001828103825283818151815260200191508051906020019080838360005b838110156100d25780820151818401526020810190506100b7565b50505050905090810190601f1680156100ff5780820380516001836020036101000a031916815260200191505b509250505060405180910390f35b34801561011957600080fd5b50610194600480360381019080803590602001908201803590602001908080601f0160208091040260200160405190810160405280939291908181526020018383808284378201915050505050509192919290803573ffffffffffffffffffffffffffffffffffffffff169060200190929190505050610276565b005b60606000808373ffffffffffffffffffffffffffffffffffffffff1673ffffffffffffffffffffffffffffffffffffffff1681526020019081526020016000208054600181600116156101000203166002900480601f01602080910402602001604051908101604052809291908181526020018280546001816001161561010002031660029004801561026a5780601f1061023f5761010080835404028352916020019161026a565b820191906000526020600020905b81548152906001019060200180831161024d57829003601f168201915b50505050509050919050565b816000808373ffffffffffffffffffffffffffffffffffffffff1673ffffffffffffffffffffffffffffffffffffffff16815260200190815260200160002090805190602001906102c89291906103d1565b507f49002654cddd708e5a0a5fae14ac39e1abb3ad8dc34645b135127bfbd23b064a82823360405180806020018473ffffffffffffffffffffffffffffffffffffffff1673ffffffffffffffffffffffffffffffffffffffff1681526020018373ffffffffffffffffffffffffffffffffffffffff1673ffffffffffffffffffffffffffffffffffffffff168152602001828103825285818151815260200191508051906020019080838360005b83811015610391578082015181840152602081019050610376565b50505050905090810190601f1680156103be5780820380516001836020036101000a031916815260200191505b5094505050505060405180910390a15050565b828054600181600116156101000203166002900490600052602060002090601f016020900481019282601f1061041257805160ff1916838001178555610440565b82800160010185558215610440579182015b8281111561043f578251825591602001919060010190610424565b5b50905061044d9190610451565b5090565b61047391905b8082111561046f576000816000905550600101610457565b5090565b905600a165627a7a723058204902f9609346e5fe773a3c6f734e127e8a928ce766e7481566a530d8c6821d5c0029",
  "source": "pragma solidity ^0.4.22;\r\n\r\n\r\n\r\ncontract EchoApp {\r\n\r\n  mapping (address => string) ethAddrToIndexName;\r\n  mapping (address => address) indexToFollowers;\r\n\r\n  event indexCreated(string _name, address _ethAddress, address _sChainAddress);\r\n\r\n\r\n  function createIndex(string memory _name, address _addrOnEthNetwork) public {\r\n    ethAddrToIndexName[_addrOnEthNetwork] = _name;\r\n    emit indexCreated(_name, _addrOnEthNetwork, msg.sender);\r\n  }\r\n\r\n  function getIndexName(address _ethAddr) public view returns (string memory) {\r\n    return ethAddrToIndexName[_ethAddr];\r\n  }\r\n\r\n}\r\n \r\n\r\n  \r\n",
  "sourcePath": "C:/lib/CURRENT DEV/echo-app-contract/contracts/EchoApp.sol",
  "compiler": {
    "name": "solc",
    "version": "0.4.24+commit.e67f0147.Emscripten.clang"
  },
  "schemaVersion": "3.0.6",
  "updatedAt": "2019-04-10T16:55:51.978Z",
  "devdoc": {
    "methods": {}
  },
  "userdoc": {
    "methods": {}
  }
}